:100000000C940E050C94B0200C94D7200C9401197C
:100010000C9401190C9401190C9436050C943605B6
:100020000C9436050C9436050C9436050C94360564
:100030000C9436050C9436050C9436050C94360554
:100040000C94FE200C9436050C9433240C946524F7
:100050000C9436050C9436050C9436050C94360534
:100060000C94F1160C943605C60FAD10D30FE00FAB
:10007000ED0FFA0F0710750FAD10B80F14101D100B
:1000800026102F10AD10AD10AD10AD10AD10AD108D
:10009000AD10AD10AD10AD10AD10AD10AD10AD1078
:1000A000AD10AD10AD10AD103810AD1041104A10AC
:1000B00053105C106510AD10AD106E1077107C10F1
:1000C000811086109410AD10AD10AD10AD10AD10B4
:1000D000AD10AD10AD109B10084AD73B3BCE016E62
:1000E00084BCBFFDC12F3D6C74319ABD56833DDA8F
:1000F0003D00C77F11BED9E4BB4C3E916BAAAABE9E
:10010000000000803F0001B202FFFF0190040923BC
:10011000A135016A0206000160080000000000002D
:100120000000006004400000000162020000006066
:100130000400400000037B034CCD6C03AB03365638
:100140007600680402CB47A202180400058BC101A7
:100150000C0400000000037F060CC92C979797033E
:100160008903264666006C0220000240040000005D
:1001700000024404000000000248040000000002E5
:100180004C0400000000025004000000000254046F
:100190000000000002580400000000025C0400009F
:1001A000000002BC040000000001EC04000040005C
:1001B000037F060CC92C9797970402030D355D0445
:1001C0000904872D353D00A30100000000010786CA
:1001D00001FE074105F120283038077E013007462F
:1001E000019A074704F1283038076C04F1283038A9
:1001F0000216020001FB00003E000B003600010069
:10020000020003000000650054FFEF0000FA8000C8
:100210000B1282000100020000000000000000003C
:10022000000000000000280000FFFF4581FFFFFAEA
:100230007200000000000003E80000000100017FE0
:10024000FFFFFE8001001B00000000000000000016
:100250000000000000003E03304000000002CAE33E
:10026000093E800000200000000000000040000067
:10027000006000000041FF000000000B2A00001693
:100280005500002182FD872650FD800000001F00E0
:1002900000000580000000000000010000000200D6
:1002A0000000030000400000000000046F00026531
:1002B0003200005EC04000000000000000000000AE
:1002C0000000000000FB8C6F5DFD5D08D9007C73B1
:1002D0003B006C12CC3200139D3200D0D6320008A5
:1002E00000400001F4FFE68079020000000000D029
:1002F000D600002710FB00000040000000000000B6
:1003000000000000000000000100000000000001EB
:1003100000010000000000FA36FFBC308E0005FB33
:10032000F0FFD95BC8FFD09ABE000010A9FFF41EF1
:10033000B200CEBBF7000000010000000400020084
:10034000020200000CFFC280000001800000CF808C
:100350000040000000000000010000000000000656
:100360000000000014000000000000000000000079
:10037000000000000000000000000000000000007D
:10038000000000000000000000000000000000006D
:10039000000000000000000000033F68B679352827
:1003A000BCC67ED16C80000000400000000000B29E
:1003B0006A00000000000000000000000000003F94
:1003C000F00000003000000000000000000000000D
:1003D000000000000000000000000000000000001D
:1003E00000000000000000254D002F706D0000058A
:1003F000AE000C02D00000000000650054FFEF00CA
:100400000000000000000001000044000000000C9B
:100410000000000100000000000065000000540022
:1004200000FFEF00000000000000000000000000DE
:10043000000000000040000000000000000000007C
:10044000000000000040000000000000000000006C
:100450000000000000000000010000000200000099
:10046000000000000000000000000000000000008C
:10047000000000000000000000000000000000007C
:100480000000000000001B00000000000000000051
:10049000000000000000000000000000000000005C
:1004A000000000000000000000000000000000004C
:1004B0000040000000001B000000000000000000E1
:1004C000000000000000000000000000000000002C
:1004D000000000000000000000000000000000001C
:1004E000000000000000000000000000000000000C
:1004F0000000000000D8DCBAA2F1DEB2B8B4A881D6
:1005000091F74A907F916AF3F9DBA8F9B0BAA0801D
:10051000F2CE81F3C2F1C1F2C3F3CCA2B280F1C634
:10052000D880BAA7DFDFDFF2A7C3CBC5B6F087A2BA
:10053000942448703C95406834589B78A2F183928B
:100540002D557DD8B1B4B8A1D09180F270F370F27E
:100550007C80A8F101B09887D943D886C988BAA110
:10056000F20EB89780F1A9DFDFDFAADFDFDFF2AAA2
:10057000C5CDC7A90CC92C97979797F1A98926468D
:1005800066B0B4BA80ACDEF2CAF1B28C02A9B698F9
:1005900000890E161EB8A9B4992C547CB08AA8966E
:1005A000365676F1B9AFB4B083C0B8A89711B18F01
:1005B00098B9AFF0240844106418F1A329557DAF11
:1005C00083B593AFF0002850F1A3869F61A6DADED1
:1005D000DFD9FAA38696DB31A6D9F8DFBAA68FC297
:1005E000C5C7B28CC1B8A2DFDFDFA3DFDFDFD8D899
:1005F000F1B8A8B286B4980D355DB8AA98B0872D29
:10060000353DB2B6BAAF8C96198F9FA70E161EB4A1
:100610009AB8AA872C547CB9A3DEDFDFA3B180F29D
:10062000C4CDC9F1B8A9B499830D355D89B9A32D9D
:10063000557DB593A30E161EA92C547CB8B4B0F109
:100640009783A81184A50998A383F0DA240844109D
:100650006418D8F1A529557DA58595021A2E3A561C
:100660005A4048F9F3A3D9F8F09883240844106459
:10067000189782A8F111F098A2240844106418DA9F
:10068000F3DED883A59401D9A302F1A2C3C5C7D8CC
:10069000F18492A24DDA2AD84869D92AD86855DA65
:1006A00032D85071D932D8705DDA3AD85879D93AFF
:1006B000D87893A34DDA2AD84869D92AD86855DA68
:1006C00032D85071D932D8705DDA3AD85879D93ADF
:1006D000D878A88A9AF02850789EF38818F19F1D40
:1006E00098A8D908D8C89F129EF315A8DA1210D876
:1006F000F1AFC8978734B5B994A421F3D922D8F2C1
:100700002DF3D92AD8F235F3D932D881A4606061AB
:10071000D961D86C6869D969D8747071D971D8B148
:10072000A384193D5DA3831A3E5E9310308110119E
:10073000B8B0AF8F94F2DA3ED8B49AA88729DAF825
:10074000D8879A35DAF8D8879A3DDAF8D8B1B9A4BB
:100750009885022E56A581000C14A397B08AF12D1E
:10076000D928D84DD948D86DD968D8B1840DDA0EBA
:10077000D8A32983DA2C0ED8A3844983DA2C4C0E13
:10078000D8B8B0A88A9AF520AADADFD8A840AAD0AB
:10079000DADED8A860AADAD0DFD8F19786A8319B34
:1007A000069907AB9728889BF00C201440B8B0B48A
:1007B000A88C9CF0042851791D301438B282ABD03B
:1007C000982C505078789BF11AB0F08A9CA8295147
:1007D000798B2951798A2470598B2058718A446900
:1007E000388B3940688A6448318B304960A588204D
:1007F0000971584468113964493019F1AC002C541E
:100800007CF08CA804285078F1889726A85998ACD9
:100810008C02264666F0899CA82951792470594497
:100820006938644831A98809205970AB113840698A
:10083000A8193148608CA83C415C207C00F1879865
:100840001986A86E767EA999882D557D9EB9A38AB2
:10085000228A6E8A568A5E9FB183062646660E2ECF
:100860004E6E9DB8AD002C547CF2B18CB499B9A3F6
:100870002D557D8191AC38AD3AB58391AC2DD928F9
:10088000D84DD948D86DD968D88C9DAE29D904AE39
:10089000D851D904AED879D904D881F39DAD008D53
:1008A000AE1981ADD901D8F2AEDA26D88E9129835E
:1008B000A7D9ADADADADF32AD8D8F1B0AC89913E92
:1008C0005E76F3AC2E2EF1B18C5A9CAC2C282828E5
:1008D0009CAC3018A8988128343C9724A728343C35
:1008E0009C24F2B089AC912C4C6C8A9B2DD9D8D821
:1008F00051D9D8D879D9D8D8F19E88A331DAD8D8A7
:10090000912DD928D84DD948D86DD968D8B18393BD
:10091000353D8025DAD8D88569DAD8D8B49381A353
:1009200028343CF3AB8BF8A391B609B4D9ABDEFA0B
:10093000B0879CB9A3DDF1A3A3A3A395F1A3A3A3BF
:100940009DF1A3A3A3A3F2A3B49080F2A3A3A3A3B6
:10095000A3A3A3A3A3A3B2A3A3A3A3A3A3B087B555
:1009600099F1A3A3A398F1A3A3A3A397A3A3A3A3DC
:10097000F39BA3A3DCB9A7F1262626D8D8FF000055
:10098000000800020100000304070000000000004E
:100990000000010204081020408001020408102019
:1009A00001020408102004040404040404040202E4
:1009B00002020202030303030303000000002300FA
:1009C0002600290000000000250028002B00000060
:1009D0000000240027002A004E414E494E49545938
:1009E000494E46CDCCCC3D0AD7233C17B7D13877FA
:1009F000CC2B329595E6241FB14F0A000020410010
:100A000000C84200401C4620BCBE4CCA1B0E5AAE59
:100A1000C59D7400E210071695243F1111241FBED6
:100A2000CFEFD8E0DEBFCDBF11E0A0E0B1E0EEE453
:100A3000FFE502C005900D92AA35B107D9F724E071
:100A4000AAE5B1E001C01D92A734B207E1F71AE0B0
:100A5000CAE1DAE004C02297FE010E945D2BC43196
:100A6000D107C9F70E94D9240C949A2F0C94000046
:100A7000DC01ED91FD918081ED91FD919081ED91F1
:100A8000FD916C9163708E2309F064609F2309F0DF
:100A90006860E5E5F5E0E60FF11D659565956D93F8
:100AA0006D917D918D919D91099423C01AC012C0C2
:100AB00016C010C01EC009C014C013C006C019C0A3
:100AC00009C00DC007C00DC014C062507040804006
:100AD00090400BC0615070408040904006C06E5FF7
:100AE00001C06F5F7F4F8F4F9F4F9E938E937E937A
:100AF0006E9308958091990390919A030C94380510
:100B000080919703909198030C943805823061F09E
:100B10008330B9F470939A036093990341E050E0F5
:100B20006AE775E081E009C07093980360939703CA
:100B300041E050E060E875E080E00E94902081E0B4
:100B4000089580E008950F931F93CF93DF93EC01F6
:100B5000062F142F62E0802F0E947F2262E0812FF7
:100B60000E947F22202F30E0F901EA55F64FE491F0
:100B7000F0E0EE0FFF1FE654F64F45915491598374
:100B80004883F901EE56F64F24912C83212F30E053
:100B9000F901EA55F64FE491F0E0EE0FFF1FE6543D
:100BA000F64FA591B491BB83AA83F901EE56F64F97
:100BB00024912D831F82188619861A8680ED97E06E
:100BC0000E94B121E881F98190818C81982381E094
:100BD00009F480E0EA81FB8190812D81922309F064
:100BE00082608E83BE01802F0E9486058B87BE01A6
:100BF000812F0E9486052B8590E0820F911D8B87A7
:100C0000DF91CF911F910F9108958F929F92AF9294
:100C1000BF92CF92EF920F931F93CF93DF93CDB7F5
:100C2000DEB7C059D1090FB6F894DEBF0FBECDBFF5
:100C30005C010E94271D6EE170E080E090E00E9460
:100C4000772160E0C5010E942E1D21E041E060E1B6
:100C5000C5010E94561E66E0C5010E94611E20E08B
:100C600040E060E0C5010E94561EC5010E94AF1D14
:100C7000182FC5010E94D61D882EC5010E94FD1D9A
:100C8000982E4FE760E0C5010E94E71C60E0C501B7
:100C90000E94121D48E660E0C5010E94E71CC501E4
:100CA0000E94201D64E170E080E090E00E947721C6
:100CB000EE24E39400E020E049E857E065EF71E0BE
:100CC000C5010E94B51F882309F408C240EC50E01A
:100CD00065E371E0C5010E948020882309F400C209
:100CE00063E0C5010E94351D62E1C5010E94F31C4D
:100CF00064E0C5010E949D1C61E0C5010E94A31C27
:100D000063E0C5010E94AE1C63E0C5010E94B91CEE
:100D100063E0C5010E94832060E0C5010E94892034
:100D200060E0C5010E94A81D612FC5010E94CB1D76
:100D3000682DC5010E94F21D692DC5010E94191E72
:100D4000812C912CF401EA5FFE4FE491A1E8B0E020
:100D5000AC0FBD1FA80DB11DEC9381E0880D9FEF76
:100D6000891A990AE3E0E81568F7CD57DF4F488103
:100D7000C358D04050E09A012E5F3F4F90E02817B3
:100D8000390704F7C12CEE24E394CE57DF4F0881D6
:100D9000C258D040CF57DF4F2881C158D04061E8BA
:100DA00070E06C0F7D1F6D5F7F4FC5010E94D11EEB
:100DB00060E0F401EA5FFE4FE491A1E8B0E0AC0F1F
:100DC000BD1FA60FB11DEC936F5FFFEF8F1A9F0A37
:100DD000643078F3CD57DF4F4881C358D04050E09E
:100DE0009A012E5F3F4F862F90E0281739070CF7A6
:100DF000C12CEE24E394CE57DF4F0881C258D04077
:100E0000CF57DF4F2881C158D04061E870E06C0FA8
:100E10007D1F6D5F7F4FC5010E94D11EC5010E94DD
:100E2000191DC5010E94541D482FBE016F5F7F4FE1
:100E3000C5010E94701D62E0C5010E94CF1C6CE9D3
:100E4000C5010E94DB1C60E5C5010E94D51C60E065
:100E5000C5010E94E11CC5010E94191D61E0C50188
:100E60000E940B1D61E0C5010E94481EC5010E9441
:100E70004F1E60E0F401EA5FFE4FE491A1E8B0E0AC
:100E8000AC0FBD1FA60FB11DEC936F5F8FEF881ADB
:100E9000980A643078F3CD57DF4F4881C358D0406B
:100EA00050E09A012E5F3F4F862F90E028173907B8
:100EB0000CF7C12CEE24E394CE57DF4F0881C258C3
:100EC000D040CF57DF4F2881C158D04061E870E053
:100ED0006C0F7D1F6D5F7F4FC5010E94D11E60E0CA
:100EE000F401EA5FFE4FE491A1E8B0E0AC0FBD1F52
:100EF000A60FB11DEC936F5F9FEF891A990A6430BA
:100F000078F3CD57DF4F4881C358D04050E09A0165
:100F10002E5F3F4F862F90E0281739070CF7C12C22
:100F2000EE24E394CE57DF4F0881C258D040CF570C
:100F3000DF4F2881C158D04061E870E06C0F7D1F01
:100F40006D5F7F4FC5010E94D11E60E0F401EA5F32
:100F5000FE4FE491A1E8B0E0AC0FBD1FA60FB11D9C
:100F6000EC936F5FEFEF8E1A9E0A643078F3CD57E3
:100F7000DF4F4881C358D04050E09A012E5F3F4F69
:100F8000862F90E0281739070CF7C12CEE24E39444
:100F9000CE57DF4F0881C258D040CF57DF4F28814E
:100FA000C158D04061E870E06C0F7D1F6D5F7F4FCE
:100FB000C5010E94D11EC5010E94541D83309105B8
:100FC000D0F3482FBE016F5F7F4FC5010E94701D97
:100FD00060E0F401EA5FFE4FE491A1E8B0E0AC0FFD
:100FE000BD1FA60FB11DEC936F5FFFEF8F1A9F0A15
:100FF000643078F3CD57DF4F4881C358D04050E07C
:101000009A012E5F3F4F862F90E0281739070CF783
:10101000CE57DF4F0881C258D040CF57DF4F2881CD
:10102000C158D04061E870E06C0F7D1F6D5F7F4F4D
:10103000C5010E94671EC5010E94541D83309105A1
:10104000D0F3482FBE016F5F7F4FC5010E94701D16
:10105000F401EA5FFE4F60E08491A1E8B0E0AC0FDC
:10106000BD1FA60FB11D8C936F5F643010F43196D5
:10107000F3CFCD57DF4F4881C358D04050E09A019D
:101080002E5F3F4F862F90E02817390784F761E8DD
:1010900070E06C0F7D1F6D5F7F4FC12CEE24E394D9
:1010A000CE57DF4F0881C258D040CF57DF4F28813D
:1010B000C158D040C5010E94D11E60E0C5010E9408
:1010C000481E8AE290E0F50193838283C5010E9465
:1010D000191DC5010E94F91C80E003C081E001C018
:1010E00082E0C057DF4F0FB6F894DEBF0FBECDBF12
:1010F000DF91CF911F910F91EF90CF90BF90AF9064
:101100009F908F900895CF93DF93DB01FA01309782
:1011100019F4EC01E881F981808190E0982F88270B
:101120002181822B11969C938E93848190E0982F3D
:1011300088272581822B13969C938E931297808506
:1011400090E0982F88272185822B15969C938E936B
:101150001497848590E0982F88272585822B1796F1
:101160009C938E93169780E0DF91CF910895FF9224
:101170000F931F93CF93DF93CDB7DEB728970FB6AA
:10118000F894DEBF0FBECDBF8B01BE016F5F7F4FF6
:101190000E948308F82E81114CC069817A818827CA
:1011A00077FD8095982F0E94652920E030E040E887
:1011B00058E30E94452AF8016083718382839383F8
:1011C0006B817C81882777FD8095982F0E94652907
:1011D00020E030E040E858E30E94452AF8016483AB
:1011E0007583868397836D817E81882777FD8095BF
:1011F000982F0E94652920E030E040E858E30E94E3
:10120000452AF80160877187828793876F81788587
:10121000882777FD8095982F0E94652920E030E08F
:1012200040E858E30E94452AF8016487758786875D
:1012300097878F2D28960FB6F894DEBF0FBECDBFCF
:10124000DF91CF911F910F91FF9008954F925F9280
:101250006F927F928F929F92AF92BF92CF92DF92C6
:10126000EF92FF920F931F93CF93DF93CDB7DEB72B
:1012700028970FB6F894DEBF0FBECDBF8B01DA0101
:101280001496CD90DD90ED90FC9017971C964D90A4
:101290005D906D907C901F978D909D90AD90BC90CF
:1012A000139718968D919D910D90BC91A02D8983D7
:1012B0009A83AB83BC83A3019201C701B6010E944C
:1012C000452A6D837E838F83988729813A814B815C
:1012D0005C81C501B4010E94452A9B01AC016D816E
:1012E0007E818F8198850E94FF279B01AC010E941F
:1012F0000028F8016083718382839383A70196019C
:10130000C501B4010E94452A6D837E838F8398872F
:10131000A301920169817A818B819C810E94452A77
:101320009B01AC016D817E818F8198850E94002890
:101330009B01AC010E940028D80114966D937D9307
:101340008D939C931797A5019401C501B4010E9448
:10135000452A4B015C01A7019601C701B6010E9415
:10136000452A9B01AC01C501B4010E94FF276B0116
:101370007C0129813A814B815C81CA01B9010E94BB
:10138000452A9B01AC01C701B6010E94FF276B01F2
:101390007C01A3019201C301B2010E94452A9B0175
:1013A000AC01C701B6010E940028F801608771876F
:1013B0008287938780E028960FB6F894DEBF0FBE31
:1013C000CDBFDF91CF911F910F91FF90EF90DF90F4
:1013D000CF90BF90AF909F908F907F906F905F90D5
:1013E0004F9008952F923F924F925F926F927F920B
:1013F0008F929F92AF92BF92CF92DF92EF92FF9225
:101400000F931F93CF93DF9300D000D000D0CDB7C0
:10141000DEB71B018A013E832D83FA01C080D18093
:10142000E280F380A7019601C701B6010E9400285F
:1014300069837A838B839C83F80184809580A6805E
:10144000B780A5019401C501B4010E9400282B01B9
:101450003C01A701960169817A818B819C810E9460
:10146000452A6B017C01A5019401C301B2010E94D0
:10147000452A9B01AC01C701B6010E94002820E06B
:1014800030E040E85FE30E94FF276B017C01F80138
:101490002085318542855385C301B2010E94452ACA
:1014A0002B013C01F80124853585468557856981E6
:1014B0007A818B819C810E94452A9B01AC01C301EA
:1014C000B2010E94FF27A70196010E947328F10133
:1014D0006083718382839383ED81FE816481758152
:1014E00086819781C084D184E284F3849B01AC011E
:1014F0000E94452A4B015C01A7019601C701B60174
:101500000E94452A9B01AC01C501B4010E9400283C
:101510000E94AC2A9B01AC01ED81FE81608171814A
:10152000828193810E94CA280E949E28F1016483CF
:10153000758386839783ED81FE81608171818281CD
:101540009381C084D184E284F3849B01AC010E9426
:10155000452A4B015C01A7019601C701B6010E9413
:10156000452A9B01AC01C501B4010E9400280E94DC
:10157000AC2A9B01AC01ED81FE816481758186817D
:1015800097810E94CA280E949E28F1016087718776
:101590008287938780E026960FB6F894DEBF0FBE51
:1015A000CDBFDF91CF911F910F91FF90EF90DF9012
:1015B000CF90BF90AF909F908F907F906F905F90F3
:1015C0004F903F902F9008954F925F926F927F922D
:1015D0008F929F92AF92BF92CF92DF92EF92FF9243
:1015E000CF93DF9300D000D0CDB7DEB720918B0230
:1015F00030918C0240918D0250918E026091740165
:101600007091750180917601909177010E94002878
:1016100060937401709375018093760190937701C4
:10162000C0905702D0905802E0905902F0905A02B0
:10163000A70196010E94FF272B013C0160937001D6
:101640007093710180937201909373018091900166
:1016500090919101A0919201B091930189839A8315
:10166000AB83BC83209153023091540240915502C8
:1016700050915602C701B6010E94FF2729813A8185
:101680004B815C810E94CA284B015C0160934F0230
:1016900070935002809351029093520220918801DE
:1016A0003091890140918A0150918B01C301B201AF
:1016B0000E94452A2B013C0120918001309181013B
:1016C0004091820150918301C501B4010E94452AD5
:1016D0009B01AC01C301B2010E94FF27C0925302DB
:1016E000D0925402E0925502F092560221E934E37E
:1016F00045EA5FE30E94CA2829813A814B815C81D7
:101700000E94452A60936C0170936D0180936E0175
:1017100090936F010F900F900F900F90DF91CF91EA
:10172000FF90EF90DF90CF90BF90AF909F908F9001
:101730007F906F905F904F9008958F929F92AF929D
:10174000BF92CF92DF92EF92FF92C090C101D090F2
:10175000C201E090C301F090C40120E030E044E316
:1017600053E4C701B6010E94C628A701960187FF6E
:1017700004C060E070E0CB0104C060E070E084EB86
:1017800093E40E94FF2760935C0170935D01809356
:101790005E0190935F0180905C0190905D01A0904C
:1017A0005E01B0905F0120E030E044E353E4C50106
:1017B000B4010E94C62820916001309161014091DE
:1017C00062015091630118162CF0C501B4010E940A
:1017D000002804C0C501B4010E94FF2760935C018A
:1017E00070935D0180935E0190935F0180905C0136
:1017F00090905D01A0905E01B0905F0120E030E02C
:1018000044E353E4C501B4010E943A2A18164CF48B
:1018100020E030E044EB53E4C501B4010E94FF270F
:1018200012C020E030E044E353ECC501B4010E9453
:10183000C62887FF10C020E030E044EB53E4C50128
:10184000B4010E94002860935C0170935D01809355
:101850005E0190935F0120915C0130915D014091A8
:101860005E0150915F0160918401709185018091CA
:101870008601909187010E94452A4B015C012091CD
:10188000BD013091BE014091BF015091C001C7011F
:10189000B6010E94FF272091780130917901409193
:1018A0007A0150917B010E94452A2091900130914C
:1018B000910140919201509193010E94CA289B018D
:1018C000AC01C501B4010E94FF27C092BD01D092B6
:1018D000BE01E092BF01F092C00121E331E542E890
:1018E0005DE30E94452A20E030E040E05FE30E9493
:1018F00000280E94322970938A02609389027093B3
:1019000088026093870220915A017195619571094F
:10191000222329F0709388026093870204C0709399
:101920008A0260938902FF90EF90DF90CF90BF9082
:10193000AF909F908F900895CF92DF92EF92FF9299
:10194000C0906401D0906501E0906601F09067015D
:1019500020E030E0A901C701B6010E94C62887FF38
:101960000CC0F7FAF094F7F8F094C0926401D092AA
:101970006501E0926601F092670129EE3DE549E1DB
:101980005FE36091640170916501809166019091BF
:1019900067010E94CA286B017C0180915A0188234B
:1019A000E9F06091110170911201882777FD80950F
:1019B000982F0E9465299B01AC01C701B6010E94C6
:1019C0000028609383027093840280938502909331
:1019D000860260910F01709110011CC060910D0191
:1019E00070910E01882777FD8095982F0E946529B8
:1019F0009B01AC01C701B6010E94002860938302DD
:101A000070938402809385029093860260910B010B
:101A100070910C01882777FD8095982F0E94652989
:101A20009B01AC01C701B6010E94002860937F02B0
:101A30007093800280938102909382026091890268
:101A400070918A02882777FD8095982F0E946529DA
:101A50009B01AC01609183027091840280918502A8
:101A6000909186020E940028609383027093840202
:101A7000809385029093860260918702709188021C
:101A8000882777FD8095982F0E9465299B01AC01DE
:101A900060917F0270918002809181029091820218
:101AA0000E94002860937F027093800280938102DD
:101AB00090938202FF90EF90DF90CF900895CF92A5
:101AC000DF92EF92FF9260919102709192028827CB
:101AD00077FD8095982F0E946529209160013091B3
:101AE000610140916201509163010E9400286B01E5
:101AF0007C0120E030E044EB53E40E943A2A1816BF
:101B00004CF420E030E044EB53E4C701B6010E94FE
:101B1000FF271AC020E030E0A901C701B6010E94EA
:101B2000C62887FD09C0C0926001D0926101E09291
:101B30006201F092630110C020E030E044EB53E416
:101B4000C701B6010E940028609360017093610193
:101B5000809362019093630110929202109291021D
:101B6000FF90EF90DF90CF900895CF92DF92EF92A9
:101B7000FF928CE392E00E94541D90933602809372
:101B80003502409137025091380280913502909190
:101B900036028417950768F365EF71E08CE392E0F5
:101BA0000E94701D8091350290913602209137027B
:101BB00030913802821B930B90933602809335024A
:101BC00045EF51E065EE71E08CE392E00E94B708CA
:101BD00045EE51E069ED71E08CE392E00E94260948
:101BE00029ED31E045EE51E06DEC71E08CE392E0DF
:101BF0000E94F20921EE3EE245E652E46091D101F5
:101C00007091D2018091D3019091D4010E94452A14
:101C10002DEC3CEC4CE45FE30E9400286093C9018A
:101C20007093CA018093CB019093CC0121EE3EE2E8
:101C300045E652E46091CD017091CE018091CF01D3
:101C40009091D0010E94452A6B017C0120E030E098
:101C5000A9010E94C62887FD09C0C092C101D09287
:101C6000C201E092C301F092C40110C020E030E054
:101C700044EB53E4C701B6010E9400286093C10100
:101C80007093C2018093C3019093C4018CE392E0EE
:101C9000FF90EF90DF90CF900C94191DF894109264
:101CA000720210927302109274021092750278946C
:101CB000F8941092660210926702109268021092D5
:101CC0006902789410925C0210925B0210925E029C
:101CD00010925D0280914F0290915002A0915102AA
:101CE000B0915202B0588093530290935402A09343
:101CF0005502B09356020895CF92DF92EF92FF9271
:101D000080917602823030F4F8948BE692E00E9463
:101D1000380501C0F8948091720290917302A091ED
:101D20007402B09175027894919581959109909380
:101D30005C0280935B0280916A02823030F4F894F6
:101D40008FE592E00E94380501C0F8948091660208
:101D500090916702A0916802B09169027894909383
:101D60005E0280935D0280915B0290915C02815DD6
:101D70009A488F359A4E10F00E944E0E80915D0267
:101D800090915E02815D9A488F359A4E10F00E94C4
:101D90004E0E60915D0270915E02882777FD8095FE
:101DA000982F0E9465296B017C0160915B02709104
:101DB0005C02882777FD8095982F0E9465299B01FA
:101DC000AC01C701B6010E94002820E030E040E0ED
:101DD0005FE30E94452A60935702709358028093F4
:101DE000590290935A02FF90EF90DF90CF900895A0
:101DF00060E085E00E94B82260E086E00E94B822A0
:101E000060E087E00E94B82260E088E00C94B8228D
:101E1000CF92DF92EF92FF92C090C901D090CA0199
:101E2000E090CB01F090CC0120E030E0A901C701A7
:101E3000B6010E943A2A18168CF481E080935A0168
:101E400061E085E00E94B82260E086E00E94B8224E
:101E500060E087E00E94B82261E018C020E030E036
:101E6000A901C701B6010E94C62887FF16C01092BB
:101E70005A0160E085E00E94B82261E086E00E949D
:101E8000B82261E087E00E94B82260E088E0FF901D
:101E9000EF90DF90CF900C94B822FF90EF90DF90FE
:101EA000CF900C94F80E60E070E089E00E94F7217A
:101EB00060E070E08AE00E94F7210C94F80ECF9267
:101EC000DF92EF92FF9280910A01992787FD90950A
:101ED000A92FB92FFC01E154F109E833F10508F00D
:101EE0003CC1EC5CFF4F0C945B2B84E991E00E94B9
:101EF000E8277093900260938F02882777FD809582
:101F0000982F0E9465296B017C0120E030E048ECAD
:101F100052EC0E94C62887FD13C020E030E048EC58
:101F200052E4C701B6010E943A2A181674F02AE05A
:101F300037ED43E25CE3C701B6010E94452A09C0C0
:101F400060E070E080E89FEB04C060E070E080E853
:101F50009FE327E13CE245E453E40E94452A609375
:101F60008B0270938C0280938D0290938E02F5C049
:101F700084E991E00E94E8277093920260939102B5
:101F8000FF90EF90DF90CF900C945F0D84E991E08B
:101F90000E94F32760930601709307018093080164
:101FA00090930901DAC084E991E00E94F3276093DD
:101FB0007C0170937D0180937E0190937F01CDC061
:101FC00084E991E00E94F32760938801709389016E
:101FD00080938A0190938B01C0C084E991E00E94B4
:101FE000F327609380017093810180938201909325
:101FF0008301B3C084E991E00E94F32760938401D8
:10200000709385018093860190938701A6C084E92F
:1020100091E00E94F3276093780170937901809397
:102020007A0190937B0199C084E991E00E94E827AE
:10203000709312016093110190C084E991E00E94B5
:10204000E8277093100160930F0187C084E991E045
:102050000E94E82770930E0160930D017EC084E911
:1020600091E00E94E82770930C0160930B0175C00A
:10207000409106015091070160910801709109019A
:1020800062C040917C0150917D0160917E01709110
:102090007F0159C0409188015091890160918A0166
:1020A00070918B0150C040918001509181016091ED
:1020B00082017091830147C0409184015091850154
:1020C00060918601709187013EC0409178015091E6
:1020D000790160917A0170917B0135C04091600176
:1020E0005091610160916201709163012CC0609117
:1020F0001101709112010EC060910F0170911001D9
:1021000009C060910D0170910E0104C060910B0136
:1021100070910C014AE050E08AE991E0FF90EF9065
:10212000DF90CF900C94CA2522E030E04DEC5CECBF
:102130006CE47FE30AC04091C9015091CA016091EB
:10214000CB017091CC0123E030E08AE991E0FF906F
:10215000EF90DF90CF900C94CD26FF90EF90DF9022
:10216000CF90089561E0019711F48DE001C08CE0FB
:102170000C94B82260E0019711F48DE001C08CE06E
:102180000C94B8220F931F93CF93DF938C01C5E07B
:10219000D0E0C8010E94B21064E670E080E090E0F8
:1021A0000E947721C8010E94BA1064E670E080E0C6
:1021B00090E00E947721219761F7DF91CF911F91E5
:1021C0000F9108954BE063E08BE692E00E94A30537
:1021D00044E062E08FE592E00E94A3058CE392E088
:1021E0000E94991C8BE392E00E94921A80E090E09A
:1021F000A0E8BFE38093E5019093E601A093E70197
:10220000B093E8011092E9011092EA011092EB01FB
:102210001092EC011092ED011092EE011092EF017C
:102220001092F0011092F1011092F2011092F3015C
:102230001092F4011092D9011092DA011092DB0190
:102240001092DC011092DD011092DE011092DF018C
:102250001092E0011092E1011092E2011092E3016C
:102260001092E40120E04EE06FE08AE991E00E94E4
:10227000D4196BE471E084E991E00C944D2784E972
:1022800091E00E94DF268AE991E00C947B19BF92CD
:10229000CF92DF92EF92FF920F931F93CF93DF9332
:1022A00000D000D000D0CDB7DEB784EA93E00E9422
:1022B000EE22181619069CF584EA93E00E94EE229D
:1022C000059721F584EA93E00E940723C0977C01DB
:1022D00084EA93E00E94072353E0C52ED12C00E04E
:1022E00010E06AE0B62E84EA93E00E94072398018A
:1022F000B29E8001B39E100D1124080F191F0053C8
:10230000110931E0C31AD10871F704C000E010E0F0
:10231000E12CF12C84EA93E00E944A2304C000E0FF
:1023200010E0E12CF12C8AE991E00E94AA1818161D
:1023300019065CF58AE991E00E941E1880930A0153
:102340006BE471E084E991E00E9483278AE991E0DF
:102350000E941E18D82E8AE0D816A9F064E971E010
:10236000CE0101960E947A276D2DCE0101960E9422
:10237000DA27BC0184E991E00E946327CE0101962F
:102380000E94DF26E3CF0E945F0F80915B018823CC
:1023900089F021E0E216F10439F032E0E316F104AD
:1023A00039F40E945F0D04C01093900200938F02D5
:1023B00010925B0126960FB6F894DEBF0FBECDBF1C
:1023C000DF91CF911F910F91FF90EF90DF90CF9011
:1023D000BF900895CF92DF92EF92FF920E94530F29
:1023E0000E94F80E60E08DE00E94B82282E090E04A
:1023F0000E94BA101092900210928F0210929202D4
:102400001092910210928B0210928C0210928D0207
:1024100010928E0210924F021092500210925102AE
:102420001092520210926C0110926D0110926E0186
:1024300010926F01109253021092540210925502A2
:10244000109256021092B9011092BA011092BB017B
:102450001092BC0110926401109265011092660105
:10246000109267011092C5011092C6011092C70127
:102470001092C80110928A0210928902109288026A
:10248000109287021092BD011092BE011092BF01FE
:102490001092C00110928302109284021092850261
:1024A0001092860210927F02109280021092810296
:1024B0001092820210927B0210927C0210927D0296
:1024C00010927E0210927702109278021092790296
:1024D00010927A020E944E0E0E94B50D0E94471182
:1024E000C090C901D090CA01E090CB01F090CC011E
:1024F00020E030E040EA51ECC701B6010E94C62856
:1025000087FDEACF20E030E040EA51E4C701B601A0
:102510000E943A2A181604F361E08DE00E94B82266
:102520000E947C0E8091570290915802A09159020E
:10253000B0915A028093740190937501A093760133
:10254000B09377018093530290935402A093550265
:10255000B09356020E94B50D8091C1019091C201C5
:10256000A091C301B091C401809360019093610177
:10257000A0936201B09363018093BD019093BE016B
:10258000A093BF01B093C0018091C9019091CA018D
:10259000A091CB01B091CC018093C5019093C6016D
:1025A000A093C701B093C8010E94482160938C0199
:1025B00070938D0180938E0190938F011092900102
:1025C000109291011092920110929301FF90EF905E
:1025D000DF90CF90089583E992E00E94791526E07C
:1025E00040E052EC61E070E084EA93E00E94D12385
:1025F00040E855E260E070E08AE991E00E94041A48
:1026000061E085E00E947F2261E086E00E947F22F7
:1026100061E087E00E947F2261E088E00E947F22E3
:1026200061E089E00E947F2261E08AE00E947F22CF
:1026300061E08DE00E947F2261E08CE00E947F22B9
:102640008CE392E00E94401D68EE73E080E090E031
:102650000E9477218CE392E00E94A01D882309F458
:1026600052C081E090E00E94C2108CE392E00E9490
:102670000506809339026BE179EF8CE392E00E94CA
:10268000241E67E275EF8CE392E00E942A1E6DE83B
:1026900074E08CE392E00E94301E60E670E08CE310
:1026A00092E00E94361E60EE7FEF8CE392E00E9483
:1026B0003C1E68E170E08CE392E00E94421E809133
:1026C0003902811130C061E08CE392E00E94481E23
:1026D00081E080933A0280913E0290913F02909374
:1026E00038028093370281E090E00E94C21068E9CE
:1026F0007AE380E090E00E94772181E090E00E9400
:10270000C2100C94EA1182E090E00E94C2102DE009
:1027100088E190E00FB6F894A895809360000FBE12
:1027200020936000FFCF82E090E00E94C2102DE075
:1027300088E190E00FB6F894A895809360000FBEF2
:1027400020936000FFCF4F925F926F927F928F92A3
:102750009F92AF92BF92CF92DF92EF92FF920F9330
:102760001F93CF93DF93C090C901D090CA01E0902E
:10277000CB01F090CC0120E030E040EA51ECC70101
:10278000B6010E94C62887FD0AC020E030E040EA7A
:1027900051E4C701B6010E943A2A181614F40E94A7
:1027A000EA110E9447110E947C0E0E94B50D0E9402
:1027B00048216B017C010E9465294B015C016091FD
:1027C0008C0170918D0180918E0190918F010E94FA
:1027D00065299B01AC01C501B4010E94FF2720E0DF
:1027E00030E04AE754E40E94CA2860939001709355
:1027F000910180939201909393012AE037ED43E297
:102800005CE30E943A2A87FDCCC0C0928C01D09232
:102810008D01E0928E01F0928F010E94E40AC09037
:10282000C901D090CA01E090CB01F090CC01A70182
:10283000960160916C0170916D0180916E01909193
:102840006F010E94FF272B013C0160936801709388
:10285000690180936A0190936B012091C5013091C9
:10286000C6014091C7015091C801C701B6010E943D
:10287000FF27209190013091910140919201509158
:1028800093010E94CA284B015C016093B9017093C7
:10289000BA018093BB019093BC0120910601309155
:1028A00007014091080150910901C301B2010E9442
:1028B000452A2B013C0120917C0130917D01409102
:1028C0007E0150917F01C501B4010E94452A9B0100
:1028D000AC01C301B2010E94FF27609364017093B1
:1028E00065018093660190936701C092C501D09203
:1028F000C601E092C701F092C8010E94080F0E9431
:102900009D0B0E949C0C20E030E040E05FE3609172
:1029100083027091840280918502909186020E94C8
:1029200000280E943229EB016F3F710519F014F065
:10293000CFEFD0E020E030E040E05FE360917F0245
:102940007091800280918102909182020E94002801
:102950000E9432298B016F3F710519F014F00FEFBF
:1029600010E0BE01D7FF02C060E070E08AE00E9484
:10297000F721B80117FF02C060E070E089E0DF9145
:10298000CF911F910F91FF90EF90DF90CF90BF906C
:10299000AF909F908F907F906F905F904F900C942E
:1029A000F721DF91CF911F910F91FF90EF90DF9072
:1029B000CF90BF90AF909F908F907F906F905F90DF
:1029C0004F9008958091C30290E02091C402821B31
:1029D000910908952091C4028091C302281750F4F0
:1029E000E22FF0E0EB53FD4F808190E02F5F2093CA
:1029F000C40208958FEF9FEF0895E091C402809183
:102A0000C302E81730F4F0E0EB53FD4F808190E013
:102A100008958FEF9FEF08950895CF92DF92EF9280
:102A2000FF920F931F93CF93DF937C01CB018A0119
:102A300020919F02222389F0EB016B01C40ED51E69
:102A4000CC15DD0569F06991D701ED91FC910190FC
:102A5000F081E02DC7010995F3CF642F0E94C816BD
:102A6000C801DF91CF911F910F91FF90EF90DF9000
:102A7000CF900895CF93DF931F92CDB7DEB76983D0
:102A800020919F022223D1F02091A002203240F019
:102A900021E030E0FC013383228380E090E015C028
:102AA0008091A102E82FF0E0EE55FD4F99819083CF
:102AB0008F5F8093A1028093A00205C061E0CE01E8
:102AC00001960E94C81681E090E00F90DF91CF91AF
:102AD0000895FC011382128248EE53E060E070E03A
:102AE00044835583668377838DE191E0918380836E
:102AF00008951092C4021092C3021092A102109283
:102B0000A0020C940B1681E080939F026093C20296
:102B10001092A1021092A00208950F93062F21E0B7
:102B20004091A00262EA72E08091C2020E94711696
:102B30001092A1021092A00210929F020F9108958C
:102B40008F929F92AF92BF92CF92DF92EF92FF92BD
:102B50000F931F93CF93DF93EC01F62ED42E4801F1
:102B60005901EE2019F10E9483151E2D143008F032
:102B700013E01150B8F0E881F98128E0129FB0010C
:102B80001124A501940104C05695479537952795C2
:102B90006A95D2F7CA01B9010190F081E02DCE010A
:102BA0000995E7CF60E0CE010E948D154D2D413291
:102BB00008F040E22C2D65EC72E08F2D0E94291662
:102BC0001092C4028093C302DF91CF911F910F91A5
:102BD000FF90EF90DF90CF90BF90AF909F908F903D
:102BE0000895CF92EF920F931F93C22EE12C00E035
:102BF00010E098010E94A0151F910F91EF90CF90C7
:102C0000089521E00C94F11561E00C948D1583E991
:102C100092E00C9469151092520381E08093500366
:102C200010924F0361E082E10E94B82261E083E1EB
:102C30000E94B822E9EBF0E080818E7F8083808162
:102C40008D7F808388E48093B80085E48093BC0006
:102C50000895413208F043C0909152039111FCCF86
:102C600091E090935203209350032FEF2093E502BD
:102C700010922A03240F20932903909351039091DB
:102C80005103880F892B8093510380914F0381302A
:102C900061F410924F03809151038093BB008091A7
:102CA000BC0083FDF8CF85EC01C085EE8093BC00AD
:102CB000809152038130E1F380912A03841710F44C
:102CC00040912A032BE233E0FB01D9018A2F821BBA
:102CD000841718F48D918193F9CF842F089580E0A3
:102CE00008950F93413208F04AC090915203911118
:102CF000FCCF92E090935203009350039FEF909388
:102D0000E50210922A0340932903FB016BE273E072
:102D1000DB019A2F961B941718F491919D93F9CF8C
:102D20001092510390915103880F892B8093510386
:102D300080914F03813061F410924F0380915103D1
:102D40008093BB008091BC0083FDF8CF85EC01C06F
:102D500085EE8093BC00222321F0809152038230C3
:102D6000E1F38091E5028F3F61F08091E5028032CE
:102D700051F08091E502803341F483E007C081E0A7
:102D800005C080E003C082E001C084E00F91089597
:102D9000613298F420915203243089F46093070340
:102DA000FC0189E093E0DC012A2F281B261718F488
:102DB00021912D93F9CF80E0089581E0089582E07C
:102DC000089585ED8093BC008091BC0084FDFCCF0C
:102DD00010925203089585EC8093BC001092520328
:102DE00008951F920F920FB60F9211242F933F93C5
:102DF0004F935F936F937F938F939F93AF93BF9303
:102E0000EF93FF938091B900887F803609F49EC0CC
:102E100078F5883209F45DC090F4803109F456C029
:102E200038F4882309F4F5C0883009F44FC0F5C0A0
:102E3000883109F44EC0803209F45FC0EEC080349E
:102E400009F46AC058F4803309F457C0883309F094
:102E5000E4C08093E5020E94EB16DFC0803509F4E0
:102E60004FC0883509F45DC0883409F0D6C0D3C09E
:102E7000883909F4C4C0A8F4883709F467C038F465
:102E8000883609F463C0803709F460C0C6C088384A
:102E900009F4B5C0803909F45FC0803809F0BDC0BD
:102EA0005BC0803B09F483C038F4803A09F466C003
:102EB000883A09F47CC0B1C0803C09F4A4C0883CC5
:102EC00009F4A1C0883B09F487C0A7C080915103D1
:102ED00010C090912A0380912903981770F5E09112
:102EE0002A0381E08E0F80932A03F0E0E55DFC4F1A
:102EF00080818093BB0085EC83C08093E5028BC00A
:102F0000E0912A0381E08E0F80932A038091BB0019
:102F1000F0E0E55DFC4F808390912A0380912903C6
:102F20006BC0E0912A0381E08E0F80932A03809189
:102F3000BB00F0E0E55DFC4F808380915003811180
:102F40006AC081E080934F0384EA5EC083E080938F
:102F500052031092E602CFCF8091E602803208F051
:102F60004EC0E091E60281E08E0F8093E6028091F0
:102F7000BB00F0E0E951FD4F8083BDCF0E94EB160E
:102F80008091E602803230F4E091E602F0E0E9510F
:102F9000FD4F10826091E60270E0E0914B03F091EA
:102FA0004C0387EE92E009951092E60236C084E069
:102FB000809352031092080310920703E0914D038F
:102FC000F0914E03099580910703811105C081E0BE
:102FD0008093070310920903E091080381E08E0FAC
:102FE00080930803F0E0E75FFC4F80818093BB0093
:102FF0009091080380910703981708F47CCF85E827
:103000008093BC000AC085EC8093BC0010925203F0
:1030100004C01092E5020E94E116FF91EF91BF916A
:10302000AF919F918F917F916F915F914F913F9160
:103030002F910F900FBE0F901F9018952091950320
:103040003091960328173907B9F490915303809172
:103050005403981789F0E0915303F0E0EB5AFC4FCA
:1030600080812091530330E02F5F3F4F2F73332730
:103070002093530390E008958FEF9FEF08951F93DF
:10308000CF93DF93DC015C968D919C915D970097C7
:1030900049F481E090E013969C938E93129780E020
:1030A00090E03BC05196ED91FC91529750962C9137
:1030B0005097322F30951FB75E964C915E9741FB2B
:1030C000772770F941FD6095F8944081772311F0DE
:1030D000422B01C043234083EC012197F1F748E0E4
:1030E000508160FF02C0522B01C053235083EC017A
:1030F0002197F1F76695415099F78081772311F078
:10310000832301C0822B80831FBF5C968D919C918D
:103110005D970197F1F781E090E0DF91CF911F91EA
:103120000895089520919503309196032817390743
:1031300071F49091530380915403981741F0E091FA
:103140005303F0E0EB5AFC4F808190E008958FEF3D
:103150009FEF089520919503309196032817390722
:1031600071F4809154032091530390E0805C9F4F51
:10317000821B910960E470E00E94062B089580E0B4
:1031800090E00895E0919503F0919603E817F90710
:1031900069F4A389B4899C918589809589238C934E
:1031A000109296031092950381E0089580E00895AF
:1031B000CF93DF93EC018A8D9B8D892BF1F0809169
:1031C0009503909196038C179D07B9F0009711F025
:1031D0000E94C2188E8D8E7F8E8F10925403109293
:1031E0005303D0939603C0939503EB89FC898081A8
:1031F0009D89892B808381E001C080E0DF91CF91A0
:1032000008951F920F920FB60F9211242F933F93A0
:103210004F935F936F937F938F939F93AF93BF93DE
:10322000EF93FF93E0919503F0919603309709F4A3
:1032300051C0868DA685B785958581FF04C08C9188
:10324000892329F447C08C91892309F043C0A389BD
:10325000B4899C918589809589238C9386899789E7
:103260000197F1F7208D318DA685B785758558E0DA
:1032700040E0C9010197F1F7842F90E0959587957B
:10328000482F6C91672309F04068515091F7868D63
:1032900081FD40958091540390E001968F739927AA
:1032A00020915303281749F0A0915403B0E0AB5A82
:1032B000BC4F4C938093540303C0868D8160868FEE
:1032C000828D938D0197F1F7A389B4898C919589AB
:1032D000892B8C93FF91EF91BF91AF919F918F912B
:1032E0007F916F915F914F913F912F910F900FBE02
:1032F0000F901F9018952DE231E0FC01318320835F
:103300000C94C2181F93CF93DF93EC01162F6E8D90
:103310006695617081E06827812F0E94B82261E084
:10332000812F0E947F22812F90E0FC01EE56F64F04
:10333000E491E88BFC01EA55F64FE491F0E0EE0FE2
:10334000FF1FEC53F64F859194919A8B898BDF91F7
:10335000CF911F9108951F93CF93DF93EC01162F08
:1033600060E0812F0E947F228E8D81FD04C061E08C
:10337000812F0E94B8221C87812F90E0FC01EE561D
:10338000F64FE491ED87FC01EA55F64FE491F0E049
:10339000EE0FFF1FE654F64F859194919F878E871D
:1033A000DF91CF911F910895FF920F931F93CF93B9
:1033B000DF93EC01F62E522F1B821A8208EE13E0E7
:1033C00020E030E00C831D832E833F838DE291E06B
:1033D000998388831F8A1E8A198E188E1B8E1A8ED7
:1033E0001D8E1C8E8E8D8E7F50FB81F98E8F642FEB
:1033F000CE010E9482196F2DCE01DF91CF911F91D6
:103400000F91FF900C94AB19CF93DF93EC019A01CD
:10341000AB011B8E1A8E198E188E1F8A1E8A60E0D1
:1034200079E08DE390E00E943C2BC9012430310506
:1034300020F0B9016350710902C061E070E07D8F36
:103440006C8FEC85E63108F068C0B9017695679518
:103450006431710518F06351710902C061E070E0D8
:103460007F8B6E8B069718F0C901059702C081E02B
:1034700090E0998F888FC901880F991F820F931F41
:1034800096958795969587958D30910510F00C97B8
:1034900002C081E090E09B8F8A8F20916800E83025
:1034A00050F091E0EE3008F490E081E001C0880F28
:1034B0009A95EAF701C084E0822B809368002C85FE
:1034C000283038F02E3040F0263148F48CE690E079
:1034D00008C08DE690E005C08BE690E002C080E079
:1034E00090E09C8B8B8B283030F481E001C0880FFA
:1034F0002A95EAF70DC0822F90E02E3010F408973D
:1035000001C00E9791E001C0990F8A95EAF7892FC3
:103510008D8B8C8D9D8D0197F1F7CE01DF91CF9131
:103520000C94D8180895EF92FF920F931F93CF93A6
:10353000DF9300D0CDB7DEB7062F142F682F83E9B5
:1035400092E029833A830E948315602F83E992E0F9
:103550000E943A152981022FE22E3A81F32E8E2DF8
:10356000801B811740F4F70161917F0183E992E0AC
:103570000E943A15F4CF83E992E00E94041691E08C
:10358000811190E0892F0F900F90DF91CF911F91C3
:103590000F91FF90EF900895CF93DF931F92CDB7D7
:1035A000DEB749839E012F5F3F4F41E00E94931A8F
:1035B0000F90DF91CF910895DF92EF92FF920F93DA
:1035C0001F93CF93DF93C62F042F7901682F83E9D0
:1035D00092E00E9483156C2F83E992E00E943A15D5
:1035E00010E0000F111FD12CCD2DD0E0C017D10756
:1035F0008CF4CC0FDD1FCE0DDF1D698183E992E0D5
:103600000E943A15688183E992E00E943A15D394AA
:10361000D394EACF83E992E00E94041691E08111ED
:1036200090E0892FDF91CF911F910F91FF90EF9044
:10363000DF900895CF93DF9300D0CDB7DEB75A83E4
:1036400049839E012F5F3F4F41E00E94DC1A0F909B
:103650000F90DF91CF9108953F924F925F926F92BA
:103660007F928F929F92AF92BF92CF92DF92EF9212
:10367000FF920F931F93CF93DF9300D000D000D021
:10368000CDB7DEB7682E562E742E3A8329830E945A
:1036900048216B017C01312C412C872D90E09C83CB
:1036A0008B834801A12CB12C3714B0F5662D83E92A
:1036B00092E00E948315652D83E992E00E943A15FD
:1036C00083E992E00E940416662D83E992E00E944D
:1036D00083154B815C81431951094132510514F026
:1036E00040E250E0662D83E992E00E94011683E9F2
:1036F00092E00E94E214892B59F10115110579F12C
:103700000E9448216C197D098E099F096815790569
:103710008A059B0520F11CC00115110589F10E9445
:1037200048216C197D098E099F0920E030E060175F
:1037300071078207930720F1872D90E0242D33270E
:1037400027FD309528173907DCF444244A9418C023
:10375000872D90E2971508F480E2380EA5CFE98115
:10376000FA81E40DF11D47FCFA95FE83ED8383E9B0
:1037700092E00E94EA14ED81FE8180834394B7CFEA
:10378000842D26960FB6F894DEBF0FBECDBFDF9115
:10379000CF911F910F91FF90EF90DF90CF90BF904E
:1037A000AF909F908F907F906F905F904F903F90E1
:1037B00008950F931F9389019A0141E00E942C1BE9
:1037C0001F910F910895CF92DF92EF92FF920F9386
:1037D0001F93CF93DF931F92CDB7DEB7C42ED22EA7
:1037E0009701AE014F5F5F4F0E94D91B8823F1F014
:1037F0004C2D50E04D1951094F5F5F4F61E070E073
:1038000002C0660F771FDA94E2F761507109042E47
:1038100001C0660F0A94EAF72981262330E002C02E
:10382000359527954A95E2F7F80120830F90DF91AF
:10383000CF911F910F91FF90EF90DF90CF9008955F
:10384000EF92FF920F931F93CF93DF931F92CDB709
:10385000DEB7182F062FF42EE22E2091130130919F
:103860001401AE014F5F5F4F0E94D91B898121E097
:1038700030E00F2C01C0220F0A94EAF7EE2019F075
:10388000482F422B03C0422F409548234983602F85
:10389000812F0E94CC1A0F90DF91CF911F910F9131
:1038A000FF90EF900895DF92EF92FF920F931F9396
:1038B000CF93DF931F92CDB7DEB7F82EE62ED42E2E
:1038C000122F2091130130911401AE014F5F5F4F11
:1038D0000E94D91B882319F14D2D50E0411B51093D
:1038E0004F5F5F4FE1E0F0E002C0EE0FFF1F1A955F
:1038F000E2F73197042E01C0EE0F0A94EAF701C0F7
:10390000000F4A95EAF74E2F409589814823E0231E
:103910004E2B49836E2D8F2D0E94CC1A01C080E062
:103920000F90DF91CF911F910F91FF90EF90DF905B
:10393000089528E6FC0120830895462F69E1FC01E3
:1039400080810C94CC1A0F93062F23E045E06AE1A6
:10395000FC0180810E94531C0F9108950F93062F44
:1039600023E042E06AE1FC0180810E94531C0F9138
:1039700008950F93062F22E044E06BE1FC01808163
:103980000E94531C0F9108950F93062F22E044E0EC
:103990006CE1FC0180810E94531C0F910895462F19
:1039A0006FE1FC0180810C94CC1A462F60E2FC018F
:1039B00080810C94CC1A462F61E2FC0180810C942A
:1039C000CC1A462F62E2FC0180810C94CC1A643040
:1039D00048F4262F220F260F2B5D622FFC018081D9
:1039E0000C94CC1A0895462F68E3FC0180810C9456
:1039F000CC1ACF93DF93EC01209113013091140185
:103A0000AC014F5F5F4F6AE388810E94D91B8981B7
:103A1000DF91CF910895262F46E06AE6FC01808170
:103A20000C94201C262F45E06AE6FC0180810C9452
:103A3000201C21E042E06AE6FC0180810C94201CFD
:103A400021E041E06AE6FC0180810C94201C21E029
:103A500047E06BE6FC0180810C94201C262F46E099
:103A60006BE6FC0180810C94201C0F93062F23E051
:103A700042E06BE6FC0180810E94531C0F91089587
:103A8000CF93DF93EC0161E00E94351D60E0CE0131
:103A90000E94B91C60E0CE010E94C41C60E0CE010F
:103AA000DF91CF910C942E1D0F931F93CF93DF9333
:103AB000EC0100911301109114019C012F5F3F4F05
:103AC00042E062E788810E942C1B898190E0982F58
:103AD00088272A81822BDF91CF911F910F91089522
:103AE0000F931F939B01442351F0009113011091F8
:103AF000140164E7FC0180810E942C1B02C0FB01C1
:103B000010821F910F910895EF92FF920F931F93D0
:103B1000CF93DF93EC01E0901301F09014018C013E
:103B20000F5F1F4F26E046E065E788810E94E31B98
:103B30008981DF91CF911F910F91FF90EF900895B0
:103B40000E94841D91E0843309F090E0892F08954C
:103B5000262F40E060E0FC0180810C94201CEF9255
:103B6000FF920F931F93CF93DF93EC01E09013012B
:103B7000F09014018C010F5F1F4F26E046E060E0DB
:103B800088810E94E31B8981DF91CF911F910F9162
:103B9000FF90EF9008950F93062F26E046E060E037
:103BA000FC0180810E94531C0F910895EF92FF92B7
:103BB0000F931F93CF93DF93EC01E0901301F090EC
:103BC00014018C010F5F1F4F26E046E061E0888101
:103BD0000E94E31B8981DF91CF911F910F91FF908C
:103BE000EF9008950F93062F26E046E061E0FC0178
:103BF00080810E94531C0F910895EF92FF920F93C2
:103C00001F93CF93DF93EC01E0901301F090140128
:103C10008C010F5F1F4F26E046E062E088810E9422
:103C2000E31B8981DF91CF911F910F91FF90EF905E
:103C300008950F93062F26E046E062E0FC018081A4
:103C40000E94531C0F910895AB0166E0FC01808136
:103C50000C941A1BAB0168E0FC0180810C941A1BC8
:103C6000AB016AE0FC0180810C941A1BAB0163E19B
:103C7000FC0180810C941A1BAB0165E1FC01808181
:103C80000C941A1BAB0167E1FC0180810C941A1B98
:103C9000262F47E06AE6FC0180810C94201C21E07D
:103CA00043E06AE6FC0180810C94201C6F712111B5
:103CB000606241116064462F6DE6FC0180810C94C6
:103CC000CC1A462F6EE6FC0180810C94CC1A5F92D0
:103CD0006F927F928F929F92AF92BF92CF92DF921C
:103CE000EF92FF920F931F93CF93DF937C015B01C1
:103CF0006A01622E702E20E040E0662D0E94561E62
:103D0000602FC7010E94611EC0E0D0E0812C992481
:103D10009394CC15DD05A8F5CE014096C816D906BA
:103D200018F45C2C5C1A02C0A0E15A2E252D30E05C
:103D3000C401871991098217930714F4572C5194E1
:103D4000009113011091140195012C0F3D1F452D79
:103D50006FE6F70180810E942C1BC50DD11D750CEB
:103D6000CC15DD05B0F6711001C0639420E040E091
:103D7000662DC7010E94561E672DC7010E94611E55
:103D8000C8CFDF91CF911F910F91FF90EF90DF90FF
:103D9000CF90BF90AF909F908F907F906F905F90EB
:103DA00008952F923F924F925F926F927F928F92DF
:103DB0009F92AF92BF92CF92DF92EF92FF920F93BA
:103DC0001F93CF93DF9300D000D01F92CDB7DEB703
:103DD0009D838C837B836A834A01322ED02EE982B5
:103DE00020E040E0632D0E94561E602F8C819D8153
:103DF0000E94611EE980EE2029F080E190E00E949F
:103E0000752B5C01CC2039F080E190E00E94752B8D
:103E1000582E292E02C0512C212CE12CF12CE81413
:103E2000F90408F07AC0C70140968816990618F47C
:103E3000482C4E1802C010E1412E242D30E080E0C5
:103E400091E08D1991098217930714F44D2C419438
:103E5000EA81FB81EE0DFF1DCC2059F0852DA52DAB
:103E6000B22D9A2F981B941530F494919D9331960E
:103E7000F8CF5E2E2F2E252D322D442D6FE6AC81EE
:103E8000BD818C910E94931A642C712CB981BB2343
:103E900069F1A114B10451F120E040E0632D8C815F
:103EA0009D810E94561E6D2D8C819D810E94611EF8
:103EB00000911301109114019501442D6FE6EC81DE
:103EC000FD8180810E942C1BA301B501852D922DBF
:103ED0000E94992D892B51F0C5010E940D2CCC20F8
:103EE00049F1852D922D0E940D2C24C0E60CF71C63
:103EF000D40CE814F90408F092CFD11001C0339427
:103F000020E040E0632D8C819D810E94561E6D2D26
:103F10008C819D810E94611E82CFF981FF2319F05F
:103F2000C5010E940D2CCC2039F0852D922D0E94C8
:103F30000D2C02C080E001C081E00F900F900F9027
:103F40000F900F90DF91CF911F910F91FF90EF9005
:103F5000DF90CF90BF90AF909F908F907F906F90A9
:103F60005F904F903F902F900895CF92EF920F93D4
:103F7000CC24C3940E94D11E0F91EF90CF9008954E
:103F80002F923F924F925F926F927F928F929F9269
:103F9000AF92BF92CF92DF92EF92FF920F931F9357
:103FA000CF93DF9300D01F92CDB7DEB74C017B8358
:103FB0006A833A01D22E222339F088E090E00E94F1
:103FC000752B182FF92E02C010E0F12C212C312C6A
:103FD0002614370408F051C0EA81FB81E20DF31D7D
:103FE000C10103965C01DD20C1F04491F1013196DD
:103FF0008A819B81E80FF91F0491F1013296E80F45
:10400000F91F5490511044C0F4E02F0E311CEA8186
:10401000FB81EA0DFB1D84910DC04081018152801E
:10402000EA81FB81E80FF91F51100DC084E0280ED2
:10403000311C80818130D1F442E368E3F401808156
:104040000E94CC1AC5CF1E2FFF2E452C512CC12CFF
:10405000EE24E394242FA201612F7F2DC4010E943E
:10406000D11E12012A0C3B1C8111B2CFDD2061F060
:10407000812F9F2D0E940D2C07C0DD2039F0812F4C
:104080009F2D0E940D2C02C080E024C081E022C040
:10409000252C312CF2E0F51548F4B101812F9F2D2C
:1040A00049830E949C2C182FF92E4981812F9F2D26
:1040B000A0E0B0E02A813B812A0D3B1DA215B3058B
:1040C00020F6F901EA0FFB1F5491FC015193CF0137
:1040D0001196F4CF0F900F900F90DF91CF911F9119
:1040E0000F91FF90EF90DF90CF90BF90AF909F9097
:1040F0008F907F906F905F904F903F902F9008959A
:1041000021E00C94C01F462F60E7FC0180810C94D5
:10411000CC1A462F61E7FC0180810C94CC1A0895DB
:104120008230E8F4E82FF0E0EE0FFF1FEB5EFE4F69
:1041300071836083813041F0809169008C7F842B92
:1041400080936900E89A089580916900440F551F93
:10415000440F551F837F842B80936900E99A08954B
:104160001F920F920FB60F9211242F933F934F93EC
:104170005F936F937F938F939F93AF93BF93EF93CF
:10418000FF93E0911501F09116010995FF91EF91D0
:10419000BF91AF919F918F917F916F915F914F915F
:1041A0003F912F910F900FBE0F901F9018951F9267
:1041B0000F920FB60F9211242F933F934F935F935B
:1041C0006F937F938F939F93AF93BF93EF93FF93DF
:1041D000E0911701F09118010995FF91EF91BF91BE
:1041E000AF919F918F917F916F915F914F913F918F
:1041F0002F910F900FBE0F901F9018951F920F9246
:104200000FB60F9211242F933F938F939F93AF93E9
:10421000BF9380919C0390919D03A0919E03B091C8
:104220009F0330919B0323E0230F2D3720F4019649
:10423000A11DB11D05C026E8230F0296A11DB11DC9
:1042400020939B0380939C0390939D03A0939E03D4
:10425000B0939F038091A0039091A103A091A2032A
:10426000B091A3030196A11DB11D8093A00390936B
:10427000A103A093A203B093A303BF91AF919F9119
:104280008F913F912F910F900FBE0F901F90189517
:104290002FB7F89460919C0370919D0380919E03C9
:1042A00090919F032FBF08953FB7F8948091A0038A
:1042B0009091A103A091A203B091A30326B5A89B5E
:1042C00005C02F3F19F00196A11DB11D3FBF662704
:1042D000782F892F9A2F620F711D811D911D42E049
:1042E000660F771F881F991F4A95D1F708958F92FF
:1042F0009F92AF92BF92CF92DF92EF92FF926B01AB
:104300007C010E9454214B015C01C114D104E104E1
:10431000F104F1F00E94FE270E94542168197909E6
:104320008A099B09683E73408105910570F321E07D
:10433000C21AD108E108F10888EE880E83E0981EC1
:10434000A11CB11CC114D104E104F10429F7DDCF93
:10435000FF90EF90DF90CF90BF90AF909F908F90A5
:1043600008958230910538F0880F991F880F991FA2
:1043700005970197F1F70895789484B5826084BD1C
:1043800084B5816084BD85B5826085BD85B5816059
:1043900085BDEEE6F0E0808181608083E1E8F0E0B9
:1043A0001082808182608083808181608083E0E8E8
:1043B000F0E0808181608083E1EBF0E080818460C7
:1043C0008083E0EBF0E0808181608083EAE7F0E0C9
:1043D000808184608083808182608083808181602D
:1043E00080838081806880831092C10008951F932C
:1043F000CF93DF93182FEB0161E00E947F2220977B
:1044000011F460E004C0CF3FD10539F461E0812FA1
:10441000DF91CF911F910C94B822E12FF0E0E25888
:10442000F64FE491E330F9F048F4E130B9F0E230CE
:10443000A1F584B5806284BDC8BD34C0E730E9F021
:10444000E83019F1E43049F5809180008062809372
:104450008000D0938B00C0938A0024C084B580680C
:1044600084BDC7BD1FC0809180008068809380009C
:10447000D0938900C093880015C08091B0008068F7
:104480008093B000C093B3000DC08091B0008062F3
:104490008093B000C093B40005C0C038D1050CF0C3
:1044A000B5CFAFCFDF91CF911F910895833081F0C9
:1044B00028F4813099F08230A1F008958730A9F076
:1044C0008830B9F08430D1F4809180008F7D03C0B2
:1044D000809180008F7780938000089584B58F77D6
:1044E00002C084B58F7D84BD08958091B0008F7720
:1044F00003C08091B0008F7D8093B0000895CF936A
:10450000DF9390E0FC01EE56F64F2491FC01EA5552
:10451000F64F8491882349F190E0880F991FFC01A0
:10452000E253F64FA591B4918C53964FFC01C5917F
:10453000D4919FB7611108C0F8948C912095822383
:104540008C93888182230AC0623051F4F8948C9154
:10455000322F309583238C938881822B888304C0EB
:10456000F8948C91822B8C939FBFDF91CF9108950B
:104570000F931F93CF93DF931F92CDB7DEB7282FF2
:1045800030E0F901E258F64F8491F901EE56F64F0A
:104590001491F901EA55F64F04910023C9F08823DC
:1045A00021F069830E9456226981E02FF0E0EE0F2E
:1045B000FF1FEC53F64FA591B4919FB7F8948C91DF
:1045C000611103C01095812301C0812B8C939FBF83
:1045D0000F90DF91CF911F910F910895FC01818D74
:1045E000228D90E0805C9F4F821B91098F739927E9
:1045F0000895FC01918D828D981731F0828DE80F1E
:10460000F11D858D90E008958FEF9FEF0895FC01D7
:10461000918D828D981761F0828DDF01A80FB11DF9
:104620005D968C91928D9F5F9F73928F90E008951D
:104630008FEF9FEF08958BE894E2892B49F080E09B
:1046400090E0892B29F00E948B2481110C940000AA
:104650000895FC01848DDF01A80FB11DA35ABF4F3F
:104660002C91848D90E001968F739927848FA68971
:10467000B7892C93A089B1898C9180648C93938D98
:10468000848D981306C00288F389E02D80818F7D88
:1046900080830895CF93DF93EC01888D8823C9F040
:1046A000EA89FB89808185FD05C0A889B9898C913B
:1046B00086FD0FC00FB607FCF5CF808185FFF2CFD6
:1046C000A889B9898C9185FFEDCFCE010E9429235D
:1046D000E7CFDF91CF910895CF92DF92FF920F93B2
:1046E0001F93CF93DF931F92CDB7DEB76C0181E0AC
:1046F000D60158968C9358975B969C915B975C96E5
:104700008C915C97981307C05096ED91FC9151974E
:10471000808185FD2EC0F601038D10E00F5F1F4FD5
:104720000F731127F02EF601848DF81211C00FB609
:1047300007FCF9CFD6015096ED91FC9151978081FD
:1047400085FFF1CFC60169830E9429236981EBCFE0
:10475000838DE80FF11DE35AFF4F6083D6015B960E
:104760000C935B975296ED91FC91539780818062F8
:104770000CC0D6015696ED91FC91579760835096E8
:10478000ED91FC91519780818064808381E090E07D
:104790000F90DF91CF911F910F91FF90DF90CF90FD
:1047A0000895BF92CF92DF92EF92FF92CF93DF9363
:1047B000EC016A017B01B22EE889F98982E08083ED
:1047C000411581EE580761057105A1F060E079E0BF
:1047D0008DE390E0A70196010E941A2B2150310928
:1047E000410951095695479537952795211580E13F
:1047F000380798F0E889F989108260E874E88EE15A
:1048000090E0A70196010E941A2B2150310941091D
:1048100051095695479537952795EC85FD85308349
:10482000EE85FF852083188EEC89FD89B082EA89A8
:10483000FB89808180618083EA89FB89808188602F
:104840008083EA89FB89808180688083EA89FB898B
:1048500080818F7D8083DF91CF91FF90EF90DF90FB
:10486000CF90BF9008951F920F920FB60F92112410
:104870002F938F939F93EF93FF93E091B403F09165
:10488000B5038081E091BA03F091BB0382FD12C0B1
:1048900090818091BD038F5F8F732091BE0382173B
:1048A00051F0E091BD03F0E0EC55FC4F958F809303
:1048B000BD0301C08081FF91EF919F918F912F9156
:1048C0000F900FBE0F901F9018951F920F920FB66A
:1048D0000F9211242F933F934F935F936F937F9386
:1048E0008F939F93AF93BF93EF93FF9384EA93E0EB
:1048F0000E942923FF91EF91BF91AF919F918F91DA
:104900007F916F915F914F913F912F910F900FBECB
:104910000F901F90189584EA93E00E94EE2221E008
:10492000892B09F420E0822F08951092A70310929A
:10493000A60388EE93E0A0E0B0E08093A8039093F4
:10494000A903A093AA03B093AB038DE391E09093E6
:10495000A5038093A40385EC90E09093B10380932A
:10496000B00384EC90E09093B3038093B20380ECA7
:1049700090E09093B5038093B40381EC90E0909322
:10498000B7038093B60382EC90E09093B9038093D1
:10499000B80386EC90E09093BB038093BA03109227
:1049A000BD031092BE031092BF031092C00308957E
:1049B00008950E94BC210E94D8240E94EB12CBE1F2
:1049C000D3E20E94A3132097E1F30E941B23F9CFA7
:1049D000CF92DF92EF92FF920F931F93CF93DF93CB
:1049E0007C016A01EB0100E010E00C151D0571F07F
:1049F0006991D701ED91FC910190F081E02DC70103
:104A00000995892B19F00F5F1F4FEFCFC801DF9178
:104A1000CF911F910F91FF90EF90DF90CF9008956D
:104A20006115710581F0DB010D900020E9F7AD0102
:104A300041505109461B570BDC01ED91FC9102805E
:104A4000F381E02D099480E090E00895DC01ED9180
:104A5000FC910190F081E02D099469E471E00C94DF
:104A600010258F929F92AF92BF92DF92EF92FF92AA
:104A70000F931F93CF93DF93CDB7DEB7A1970FB6F8
:104A8000F894DEBF0FBECDBF7C01F42FD52ECB0135
:104A900019A2223008F42AE08E010F5D1F4F822EEA
:104AA000912CA12CB12C6F2F7D2DA50194010E947A
:104AB0001A2BF22FD32ECA01015011096A3014F4B7
:104AC000E0E301C0E7E3E60FD801EC93232B242BAE
:104AD000252B49F7B801C7010E941025A1960FB6F2
:104AE000F894DEBF0FBECDBFDF91CF911F910F9124
:104AF000FF90EF90DF90BF90AF909F908F900895C0
:104B0000CF92DF92EF92FF920F931F93CF93DF9399
:104B1000EC016A017B012115310579F4E881F98105
:104B20000190F081E02D642FDF91CF911F910F91C3
:104B3000FF90EF90DF90CF9009942A303105E9F48F
:104B400077FF1AC06DE20E9426258C014427552765
:104B5000BA014C195D096E097F092AE0CE010E9455
:104B60003125800F911FDF91CF911F910F91FF9001
:104B7000EF90DF90CF9008952AE0B701A601CE0113
:104B8000DF91CF911F910F91FF90EF90DF90CF9029
:104B90000C9431250F931F93CF93DF93EC019A016F
:104BA000AB01662757FD6095762F0E9480258C010A
:104BB000CE010E942D25800F911FDF91CF911F9173
:104BC0000F9108954F925F926F927F928F929F9272
:104BD000AF92BF92CF92DF92EF92FF920F931F930B
:104BE000CF93DF93EC016A017B01B22E9A01AB01F6
:104BF000C701B6010E94ED2A882319F06CE471E028
:104C000027C026013701E89477F82FEF3FEF4FE7F1
:104C10005FE7C301B2010E94ED2A81110DC02FEFA1
:104C20003FEF4FE75FE7C301B2010E94C6281816A5
:104C30001CF460E571E00CC02FEF3FEF4FE75FE43D
:104C4000C701B6010E943A2A1816ACF464E571E077
:104C5000CE01DF91CF911F910F91FF90EF90DF90E8
:104C6000CF90BF90AF909F908F907F906F905F900C
:104C70004F900C9410252FEF3FEF4FE75FECC701EB
:104C8000B6010E94C62887FDE1CF20E030E0A901EF
:104C9000C701B6010E94C62887FF0AC06DE2CE0197
:104CA0000E9426258C01F7FAF094F7F8F09402C0E0
:104CB00000E010E0A12C60E070E080E09FE3AB1426
:104CC00041F020E030E040E251E40E94CA28A39481
:104CD000F6CF9B01AC01C701B6010E9400286B0111
:104CE0007C010E9437292B013C010E9463299B0112
:104CF000AC01C701B6010E94FF276B017C012AE0CD
:104D0000B301A201CE010E943125080F191FBB205B
:104D100039F068E571E0CE010E941025080F191FD7
:104D20007B2C772041F120E030E040E251E4C701E4
:104D3000B6010E94452A6B017C010E9432294B0179
:104D4000AA2497FCA094BA2C2AE030E0B501A40173
:104D5000CE010E948025080F191FC501B4010E94D1
:104D600065299B01AC01C701B6010E94FF276B01B9
:104D70007C017A94D6CFC801DF91CF911F910F911A
:104D8000FF90EF90DF90CF90BF90AF909F908F906B
:104D90007F906F905F904F9008950F931F93CF93E4
:104DA000DF93EC010E94E2258C01CE010E942D25AB
:104DB000800F911FDF91CF911F910F910895FC01FA
:104DC000808191810C940D2CCF93DF93EC0188812D
:104DD0009981009711F00E940D2C198218821D8272
:104DE0001C821B821A82DF91CF9108950F931F932B
:104DF000CF93DF93EC018B016F5F7F4F88819981A7
:104E00000E949C2C009731F0998388831B830A832E
:104E100081E001C080E0DF91CF911F910F91089553
:104E2000CF93DF93EC0188819981892B29F08A81C6
:104E30009B818617970760F4CE010E94F62688238F
:104E400041F08C819D81892B19F4E881F9811082D0
:104E500081E0DF91CF910895EF92FF920F931F931E
:104E6000CF93DF93EC017B018A01BA010E941027E6
:104E7000811104C0CE010E94E42607C01D830C836B
:104E8000B701888199810E94AF2DCE01DF91CF912A
:104E90001F910F91FF90EF900895FC0111821082F5
:104EA00013821282158214826115710559F0FB017B
:104EB00001900020E9F7AF0141505109461B570B03
:104EC0000C942C270895CF93DF93EC01FB018617F8
:104ED000970761F0608171816115710529F0448146
:104EE00055810E942C2702C00E94E426CE01DF914A
:104EF000CF910895FC0111821082138212821582D3
:104F000014820C946327CF93DF93EC016115710534
:104F100061F0FB0101900020E9F7AF014150510918
:104F2000461B570B0E942C2702C00E94E426CE018C
:104F3000DF91CF910895EF92FF920F931F93CF933C
:104F4000DF93EC017B010C811D816115710511F46A
:104F500080E016C04115510591F0040F151FB801EE
:104F60000E9410278823A1F3288139818C819D819B
:104F7000B701820F931F0E94AF2D1D830C8381E028
:104F8000DF91CF911F910F91FF90EF900895CF93F4
:104F9000DF9300D0CDB7DEB769831A8241E050E0DD
:104FA000BE016F5F7F4F0E949B270F900F90DF9194
:104FB000CF910895CF93DF93EC010E94C727811111
:104FC00003C0CE010E94E426CE01DF91CF91089567
:104FD000FC0180819181009711F00C946A2D60E0B2
:104FE00070E0CB010895FC0180819181009711F060
:104FF0000C94662D60E070E0CB0108950895505840
:10500000BB27AA270ED0FCC1EDD130F0F2D120F0A1
:1050100031F49F3F11F41EF4BDC10EF4E095E7FB9F
:10502000B3C1E92FFED180F3BA1762077307840773
:10503000950718F071F49EF516C20EF4E0950B2E4C
:10504000BA2FA02D0B01B90190010C01CA01A001DA
:105050001124FF27591B99F0593F50F4503E68F135
:105060001A16F040A22F232F342F4427585FF3CF76
:10507000469537952795A795F0405395C9F77EF447
:105080001F16BA0B620B730B840BBAF09150A1F090
:10509000FF0FBB1F661F771F881FC2F70EC0BA0F16
:1050A000621F731F841F48F4879577956795B7959E
:1050B000F7959E3F08F0B3CF9395880F08F0992796
:1050C000EE0F9795879508958DD158F080E891E07F
:1050D00009F49EEF8ED128F040E851E059F45EEFDC
:1050E00009C058C1C0C1E92FE0789BD168F3092EEF
:1050F000052AC1F3261737074807590738F00E2E3F
:1051000007F8E02569F0E025E0640AC0EF6307F8DE
:10511000009407FADB01B9019D01DC01CA01AD0170
:10512000EF9347D06DD10AD05F91552331F02BED2D
:105130003FE049E450FD49EC63CF0895DF93DD275C
:10514000B92FBF7740E85FE31616170648075B07DD
:1051500010F4D92F93D19F938F937F936F933AD26B
:10516000E8EDF0E01AD14CD12F913F914F915F9132
:1051700098D1DD2349F09058A2EA2AED3FE049ECAE
:105180005FE3D0785D274DDFDF913AC1D9D008F4D5
:1051900081E008950CD034C12CD140F023D130F0FF
:1051A00021F45F3F19F0F0C051115EC1F3C039D155
:1051B00098F39923C9F35523B1F3951B550BBB27DE
:1051C000AA2762177307840738F09F5F5F4F220F8B
:1051D000331F441FAA1FA9F333D00E2E3AF0E0E884
:1051E00030D091505040E695001CCAF729D0FE2FD0
:1051F00027D0660F771F881FBB1F26173707480762
:10520000AB07B0E809F0BB0B802DBF01FF27935817
:105210005F4F2AF09E3F510568F0B6C025C15F3F41
:10522000ECF3983EDCF3869577956795B795F795FF
:105230009F5FC9F7880F911D9695879597F90895F7
:10524000E1E0660F771F881FBB1F62177307840793
:10525000BA0720F0621B730B840BBA0BEE1F88F7A2
:10526000E095089504D06894B111FEC00895E1D08E
:1052700088F09F5790F0B92F9927B751A0F0D1F03F
:10528000660F771F881F991F1AF0BA95C9F712C0C9
:10529000B13081F0E8D0B1E00895E5C0672F782FF4
:1052A0008827B85F39F0B93FCCF386957795679535
:1052B000B395D9F73EF490958095709561957F4FA1
:1052C0008F4F9F4F0895E89409C097FB3EF4909547
:1052D0008095709561957F4F8F4F9F4F9923A9F0CF
:1052E000F92F96E9BB279395F6958795779567955E
:1052F000B795F111F8CFFAF4BB0F11F460FF1BC0A2
:105300006F5F7F4F8F4F9F4F16C0882311F096E934
:1053100011C0772321F09EE8872F762F05C06623E2
:1053200071F096E8862F70E060E02AF09A95660F9B
:10533000771F881FDAF7880F9695879597F9089554
:10534000990F0008550FAA0BE0E8FEEF1616170696
:10535000E807F907C0F012161306E407F50798F0FE
:10536000621B730B840B950B39F40A2661F0232B17
:10537000242B252B21F408950A2609F4A140A69593
:105380008FEF811D811D089597F99F6780E870E078
:1053900060E008959FEF80EC0895DF93CF931F9313
:1053A0000F93FF92EF92DF927B018C01689405C00E
:1053B000DA2EEF0176D0FE01E894A5912591359182
:1053C00045915591AEF3EF012CDEFE019701A80146
:1053D000DA9479F7DF90EF90FF900F911F91CF91C2
:1053E000DF91089500240A94161617061806090678
:1053F000089500240A94121613061406050608954B
:10540000092E0394000C11F4882352F0BB0F40F4D2
:10541000BF2B11F460FF04C06F5F7F4F8F4F9F4F12
:10542000089557FD9058440F551F59F05F3F71F094
:105430004795880F97FB991F61F09F3F79F08795FB
:105440000895121613061406551FF2CF4695F1DF84
:1054500008C0161617061806991FF1CF8695710514
:10546000610508940895E894BB2766277727CB0148
:1054700097F9089565DF08F48FEF08959B01AC015B
:1054800060E070E080E89FE385CE0BD0B9CFAADF63
:1054900028F0AFDF18F0952309F076CF7BCF1124E9
:1054A000E3CFBFDFA0F3959FD1F3950F50E0551FD9
:1054B000629FF001729FBB27F00DB11D639FAA2769
:1054C000F00DB11DAA1F649F6627B00DA11D661FB8
:1054D000829F2227B00DA11D621F739FB00DA11DD9
:1054E000621F839FA00D611D221F749F3327A00D93
:1054F000611D231F849F600D211D822F762F6A2F2F
:1055000011249F5750408AF0E1F088234AF0EE0FB3
:10551000FF1FBB1F661F771F881F91505040A9F7C0
:105520009E3F510570F030CF9FCF5F3FECF3983E28
:10553000DCF3869577956795B795F795E7959F5F27
:10554000C1F7FE2B880F911D9695879597F90895C1
:1055500011F40EF41FCF45C06CDFD0F39923D9F3BB
:10556000CEF39F57550B87FF4AD00024A0E640EAB0
:10557000900180585695979528F4805C660F771FA8
:10558000881F20F026173707480730F4621B730B7B
:10559000840B202931294A2BA6951794079420259E
:1055A00031254A2758F7660F771F881F20F02617E6
:1055B0003707480730F4620B730B840B200D311D45
:1055C000411DA09581F7B901842F9158880F9695B8
:1055D000879508959B01AC0158CFB2DE880B990BDB
:1055E00008959F3F31F0915020F487957795679506
:1055F000B795880F911D9695879597F908959150C5
:105600005040660F771F881FD2F7089597FB072E2B
:1056100016F4009407D077FD09D00E94612B07FC97
:1056200005D03EF4909581959F4F089570956195B2
:105630007F4F0895A1E21A2EAA1BBB1BFD010DC0CE
:10564000AA1FBB1FEE1FFF1FA217B307E407F50732
:1056500020F0A21BB30BE40BF50B661F771F881F0E
:10566000991F1A9469F760957095809590959B01A4
:10567000AC01BD01CF010895052E97FB1EF40094E7
:105680000E94532B57FD07D00E941A2B07FC03D012
:105690004EF40C94532B50954095309521953F4FE7
:1056A0004F4F5F4F089590958095709561957F4F0E
:1056B0008F4F9F4F0895EE0FFF1F0590F491E02D3F
:1056C0000994AA1BBB1B51E107C0AA1FBB1FA61749
:1056D000B70710F0A61BB70B881F991F5A95A9F79B
:1056E00080959095BC01CD010895CF93DF938230D2
:1056F000910510F482E090E0E0914304F0914404BD
:1057000020E030E0A0E0B0E0309739F140815181F5
:1057100048175907B8F04817590771F482819381E7
:10572000109729F013969C938E9312972CC0909308
:1057300044048093430427C02115310531F04217FA
:10574000530718F0A901DB0101C0EF019A01BD0167
:10575000DF010280F381E02DD7CF21153105F9F06B
:10576000281B390B2430310580F48A819B81611517
:10577000710521F0FB019383828304C0909344045C
:1057800080934304FE01329644C0FE01E20FF31FF2
:105790008193919322503109398328833AC0209113
:1057A000410430914204232B41F4209102013091B5
:1057B0000301309342042093410420910001309171
:1057C00001012115310541F42DB73EB74091040187
:1057D00050910501241B350BE0914104F0914204E6
:1057E000E217F307A0F42E1B3F0B2817390778F0B8
:1057F000AC014E5F5F4F2417350748F04E0F5F1F17
:1058000050934204409341048193919302C0E0E09D
:10581000F0E0CF01DF91CF910895CF93DF93009710
:1058200009F487C0FC01329713821282C0914304AD
:10583000D0914404209781F420813181280F391FB1
:1058400080914104909142048217930779F5F09377
:105850004204E09341046DC0DE0120E030E0AE1769
:10586000BF0750F412964D915C9113979D0141151D
:10587000510509F1DA01F3CFB383A283408151814D
:10588000840F951F8A179B0771F48D919C91119736
:10589000840F951F02969183808312968D919C911F
:1058A0001397938382832115310529F4F0934404DF
:1058B000E09343043EC0D9011396FC93EE931297F4
:1058C0004D915D91A40FB51FEA17FB0779F4808114
:1058D0009181840F951F0296D90111969C938E9306
:1058E0008281938113969C938E931297E0E0F0E06F
:1058F0008A819B81009719F0FE01EC01F9CFCE015E
:10590000029628813981820F931F209141043091A2
:1059100042042817390769F4309729F41092440497
:105920001092430402C013821282D0934204C093A7
:105930004104DF91CF910895A0E0B0E0E2EAFCE2FB
:105940000C94582FEC01CB01209719F40E94752B71
:10595000B8C0FE01E60FF71F9E0122503109E21781
:10596000F30708F4ACC0D9010D911C9111970617EB
:105970001707B8F00530110508F49FC0A80144507E
:1059800051094617570708F498C002501109061B21
:10599000170B019311936D937C93CF010E940D2CF3
:1059A0008CC05B01A01AB10A4E01800E911EA0911D
:1059B0004304B0914404612C712C60E070E01097B6
:1059C00009F449C0A815B905C9F5ED90FC901197E7
:1059D000670142E0C40ED11CCA14DB0478F1470110
:1059E0008A189B08640142E0C40ED11C1296BC9038
:1059F00012971396AC91B5E0CB16D10440F0B28269
:105A0000A38391828082D9018D939C9309C00E5FFC
:105A10001F4F0E0D1F1DF90111830083EB2DFA2F6F
:105A20006115710531F0DB011396FC93EE9312972B
:105A300044C0F0934404E09343043FC06D917C91D3
:105A400011976616770608F43B01BD0112960D907A
:105A5000BC91A02DB4CF60914104709142046815AF
:105A60007905E9F468167906D0F440910001509167
:105A700001014115510541F44DB75EB76091040134
:105A800070910501461B570BE417F507C0F4F0931E
:105A90004204E0934104F901918380830EC00E9487
:105AA000752B7C01009759F0A801BE010E94A62D1C
:105AB000CE010E940D2CC70104C0CE0102C080E0BF
:105AC00090E0CDB7DEB7EEE00C94742F6627772711
:105AD0000C94CB2D1F93FC0199278827BC01E894D7
:105AE00011911032E9F3193010F01E30C8F31B3257
:105AF00051F01D3249F4689406C00E94B62D610F22
:105B0000711D811D911D119110531A30B0F33EF497
:105B100090958095709561957F4F8F4F9F4F1F9106
:105B2000089591119BC1803219F089508550D0F7AA
:105B30000895FB01DC0104C08D910190801921F4CE
:105B400041505040C8F7881B990B0895FB01DC01B8
:105B500002C001900D9241505040D8F70895FB01CA
:105B6000DC0101900D920020E1F70895592F482F94
:105B7000372F262F660F771F881F991F660F771FF5
:105B8000881F991F620F731F841F951F660F771F51
:105B9000881F991F0895A0E0B0E0E1EDFDE20C94AC
:105BA0005A2F8B016115710521F0DB018C93119641
:105BB0009C93EC015E01BFEFAB1ABB0A7501C88074
:105BC0008C2D90E00E94912D892B11F0E501F2CFF0
:105BD000EDE2CE1208C07E01F2E0EF0EF11CC980AA
:105BE000DD24D39409C02BE2C21205C07E0142E03D
:105BF000E40EF11CC980D12CE701219743E050E06D
:105C000060EE79E0CE010E94312F892BC1F42396FA
:105C100045E050E06BED79E0CE010E94312F892BF9
:105C200009F425960115110519F0D801CD93DC93DF
:105C3000D11006C160E070E080E89FE70AC143E050
:105C400050E068ED79E0CE010E94312F892B59F4A4
:105C50000115110509F4F9C0B2E0EB0EF11CF801D1
:105C6000F182E082F2C0F70160E070E0CB01C0E0B9
:105C7000D0E07F01A0EDAA2EAC0C29E02A1530F16E
:105C80004D2D4260B42E2D2D2870D2FE04C021115E
:105C900025C0219623C021112197A5E0B0E09B01EA
:105CA000AC010E94492F660F771F881F991F6A0D4C
:105CB000711D811D911D6839A9E97A078A07A9E13B
:105CC0009A0760F0BD2DB660BB2E08C02EEFA21261
:105CD0000AC0D3FC50C04D2D4860B42E3196D70178
:105CE000CC90DB2CC6CF2C2D2F7D253409F043C062
:105CF000A081AD3241F4BD2DB061DB2E7F0122E0E9
:105D0000E20EF11C0CC07F01AB3231F04FEFE41A10
:105D1000F40A21E030E006C0A2E0EA0EF11CA18105
:105D200022E030E0A053AA3018F0E21AF30A23C0B0
:105D3000F70120E030E02038BCE03B075CF4A9012B
:105D4000440F551F440F551F240F351F220F331FBB
:105D50002A0F311DAF014F5F5F4F7A01A081A05321
:105D6000AA3010F4FA01E7CFD4FE03C03195219593
:105D70003109C20FD31FD1FE09C00115110531F041
:105D8000E1E0EE1AF108D801ED92FC920E9463293D
:105D90002D2D2370233019F04B015C0106C04B01FF
:105DA0005C01B7FAB094B7F8B09420E030E0A901F4
:105DB000C501B4010E94C628882309F43EC0D7FF5C
:105DC00006C0D195C195D10907EF19E002C00FE0D7
:105DD0001AE06801B8E1CB1AD10890E2E92EF12C63
:105DE000CE15DF0574F0F801259135914591549158
:105DF000C501B4010E94452A4B015C01CE19DF099F
:105E0000EFCF04501109F594E7940C151D0541F7E7
:105E10008A2D880F8B2D881F8F3F49F020E030E0BE
:105E2000A901C501B4010E94C628811106C082E201
:105E300090E09093460480934504C501B40109C0E5
:105E400060E070E080E89FEF04C060E070E080EC0C
:105E50009FE7CDB7DEB7ECE00C94762F9927882723
:105E60000895FB01DC014150504088F08D91813450
:105E70001CF08B350CF4805E659161341CF06B3541
:105E80000CF4605E861B611171F3990B0895881BF9
:105E9000FCCF0E948B2FA59F900DB49F900DA49FC7
:105EA000800D911D112408952F923F924F925F9281
:105EB0006F927F928F929F92AF92BF92CF92DF921A
:105EC000EF92FF920F931F93CF93DF93CDB7DEB77F
:105ED000CA1BDB0B0FB6F894DEBF0FBECDBF099413
:105EE0002A88398848885F846E847D848C849B846A
:105EF000AA84B984C884DF80EE80FD800C811B8178
:105F0000AA81B981CE0FD11D0FB6F894DEBF0FBEA6
:105F1000CDBFED010895A29FB001B39FC001A39F23
:105F2000700D811D1124911DB29F700D811D1124D2
:105F3000911D08951AE0CAE1DAE004C0FE010E9452
:0E5F40005D2B2296CC31D107C9F7F894FFCF24
:105F4E000000470480000000E0402035003300359B
:105F5E00003300E8038F208F20000000003A150D5B
:105F6E0015E214EA14FD140C15000000003F18E8A9
:105F7E0024AA181E1892189118000000006C23E82D
:105F8E0024EE220723F9224A230D0A006E616E00C9
:0A5F9E00696E66006F7666002E0043
:00000001FF
